{
  "contractName": "AppStore",
  "abi": [
    {
      "constant": false,
      "inputs": [
        {
          "name": "target",
          "type": "address"
        }
      ],
      "name": "destroy",
      "outputs": [],
      "payable": false,
      "stateMutability": "nonpayable",
      "type": "function"
    },
    {
      "constant": true,
      "inputs": [],
      "name": "count",
      "outputs": [
        {
          "name": "",
          "type": "uint256"
        }
      ],
      "payable": false,
      "stateMutability": "view",
      "type": "function"
    },
    {
      "constant": true,
      "inputs": [],
      "name": "owner",
      "outputs": [
        {
          "name": "",
          "type": "address"
        }
      ],
      "payable": false,
      "stateMutability": "view",
      "type": "function"
    },
    {
      "constant": false,
      "inputs": [
        {
          "name": "key",
          "type": "bytes32"
        },
        {
          "name": "value",
          "type": "bytes32"
        }
      ],
      "name": "write",
      "outputs": [],
      "payable": false,
      "stateMutability": "nonpayable",
      "type": "function"
    },
    {
      "constant": true,
      "inputs": [
        {
          "name": "index",
          "type": "uint256"
        }
      ],
      "name": "read",
      "outputs": [
        {
          "name": "",
          "type": "uint256"
        },
        {
          "name": "",
          "type": "address"
        },
        {
          "name": "",
          "type": "bytes32"
        },
        {
          "name": "",
          "type": "bytes32"
        }
      ],
      "payable": false,
      "stateMutability": "view",
      "type": "function"
    },
    {
      "payable": true,
      "stateMutability": "payable",
      "type": "fallback"
    }
  ],
  "bytecode": "0x608060405232600160006101000a81548173ffffffffffffffffffffffffffffffffffffffff021916908373ffffffffffffffffffffffffffffffffffffffff16021790555061048b806100546000396000f30060806040526004361061006c576000357c0100000000000000000000000000000000000000000000000000000000900463ffffffff168062f55d9d1461007157806306661abd146100b45780638da5cb5b146100df578063e2e52ec114610136578063ed2e5a9714610175575b600080fd5b34801561007d57600080fd5b506100b2600480360381019080803573ffffffffffffffffffffffffffffffffffffffff169060200190929190505050610207565b005b3480156100c057600080fd5b506100c961027c565b6040518082815260200191505060405180910390f35b3480156100eb57600080fd5b506100f461028b565b604051808273ffffffffffffffffffffffffffffffffffffffff1673ffffffffffffffffffffffffffffffffffffffff16815260200191505060405180910390f35b34801561014257600080fd5b50610173600480360381019080803560001916906020019092919080356000191690602001909291905050506102b1565b005b34801561018157600080fd5b506101a06004803603810190808035906020019092919050505061037d565b604051808581526020018473ffffffffffffffffffffffffffffffffffffffff1673ffffffffffffffffffffffffffffffffffffffff1681526020018360001916600019168152602001826000191660001916815260200194505050505060405180910390f35b600160009054906101000a900473ffffffffffffffffffffffffffffffffffffffff1673ffffffffffffffffffffffffffffffffffffffff163373ffffffffffffffffffffffffffffffffffffffff1614151561026357600080fd5b8073ffffffffffffffffffffffffffffffffffffffff16ff5b60008060000180549050905090565b600160009054906101000a900473ffffffffffffffffffffffffffffffffffffffff1681565b73__EventStoreLib_________________________630d93ee9c600084846040518463ffffffff167c01000000000000000000000000000000000000000000000000000000000281526004018084815260200183600019166000191681526020018260001916600019168152602001935050505060206040518083038186803b15801561033d57600080fd5b505af4158015610351573d6000803e3d6000fd5b505050506040513d602081101561036757600080fd5b8101908080519060200190929190505050505050565b60008060008073__EventStoreLib_________________________631b68f0916000876040518363ffffffff167c0100000000000000000000000000000000000000000000000000000000028152600401808381526020018281526020019250505060806040518083038186803b1580156103f757600080fd5b505af415801561040b573d6000803e3d6000fd5b505050506040513d608081101561042157600080fd5b8101908080519060200190929190805190602001909291908051906020019092919080519060200190929190505050935093509350935091935091935600a165627a7a72305820bb8d65bdf0482e290b294fc29b47a92a63cc1a03151700c8d8975168091804d70029",
  "source": "pragma solidity ^0.4.19;\n\nimport \"transmute-framework/contracts/EventStore.sol\";\n\ncontract AppStore is EventStore {\n\n   \n}\n\n",
  "sourcePath": "/Users/orie/Desktop/Transmute/create-transmute-app-starter/contracts/AppStore.sol",
  "compiler": {
    "name": "solc",
    "version": "0.4.24+commit.e67f0147.Emscripten.clang"
  },
  "schemaVersion": "2.0.0",
  "updatedAt": "2018-06-30T22:56:51.977Z"
}