{
  "contractName": "EventStoreLib",
  "abi": [
    {
      "anonymous": false,
      "inputs": [
        {
          "indexed": false,
          "name": "index",
          "type": "uint256"
        },
        {
          "indexed": false,
          "name": "sender",
          "type": "address"
        },
        {
          "indexed": false,
          "name": "key",
          "type": "bytes32"
        },
        {
          "indexed": false,
          "name": "value",
          "type": "bytes32"
        }
      ],
      "name": "TransmuteEvent",
      "type": "event"
    },
    {
      "constant": false,
      "inputs": [
        {
          "name": "self",
          "type": "EventStoreLib.TransmuteStorage storage"
        },
        {
          "name": "key",
          "type": "bytes32"
        },
        {
          "name": "value",
          "type": "bytes32"
        }
      ],
      "name": "write",
      "outputs": [
        {
          "name": "",
          "type": "uint256"
        }
      ],
      "payable": false,
      "stateMutability": "nonpayable",
      "type": "function"
    },
    {
      "constant": true,
      "inputs": [
        {
          "name": "self",
          "type": "EventStoreLib.TransmuteStorage storage"
        },
        {
          "name": "index",
          "type": "uint256"
        }
      ],
      "name": "read",
      "outputs": [
        {
          "name": "",
          "type": "uint256"
        },
        {
          "name": "",
          "type": "address"
        },
        {
          "name": "",
          "type": "bytes32"
        },
        {
          "name": "",
          "type": "bytes32"
        }
      ],
      "payable": false,
      "stateMutability": "view",
      "type": "function"
    }
  ],
  "bytecode": "0x610473610030600b82828239805160001a6073146000811461002057610022565bfe5b5030600052607381538281f3007300000000000000000000000000000000000000003014608060405260043610610063576000357c0100000000000000000000000000000000000000000000000000000000900463ffffffff1680630d93ee9c146100685780631b68f091146100c5575b600080fd5b81801561007457600080fd5b506100af6004803603810190808035906020019092919080356000191690602001909291908035600019169060200190929190505050610154565b6040518082815260200191505060405180910390f35b6100ed600480360381019080803590602001909291908035906020019092919050505061031d565b604051808581526020018473ffffffffffffffffffffffffffffffffffffffff1673ffffffffffffffffffffffffffffffffffffffff1681526020018360001916600019168152602001826000191660001916815260200194505050505060405180910390f35b600061015e610402565b846000018054905081600001818152505033816020019073ffffffffffffffffffffffffffffffffffffffff16908173ffffffffffffffffffffffffffffffffffffffff1681525050838160400190600019169081600019168152505082816060019060001916908160001916815250507f4c7900e30963aa4aed068e34036112a44f45ef40623e8892337b84316e5fcb648160000151826020015183604001518460600151604051808581526020018473ffffffffffffffffffffffffffffffffffffffff1673ffffffffffffffffffffffffffffffffffffffff1681526020018360001916600019168152602001826000191660001916815260200194505050505060405180910390a18460000181908060018154018082558091505090600182039060005260206000209060040201600090919290919091506000820151816000015560208201518160010160006101000a81548173ffffffffffffffffffffffffffffffffffffffff021916908373ffffffffffffffffffffffffffffffffffffffff160217905550604082015181600201906000191690556060820151816003019060001916905550505080600001519150509392505050565b60008060008061032b610402565b866000018681548110151561033c57fe5b906000526020600020906004020160806040519081016040529081600082015481526020016001820160009054906101000a900473ffffffffffffffffffffffffffffffffffffffff1673ffffffffffffffffffffffffffffffffffffffff1673ffffffffffffffffffffffffffffffffffffffff16815260200160028201546000191660001916815260200160038201546000191660001916815250509050806000015181602001518260400151836060015194509450945094505092959194509250565b60806040519081016040528060008152602001600073ffffffffffffffffffffffffffffffffffffffff168152602001600080191681526020016000801916815250905600a165627a7a72305820ac579a2d08b2725c0b9a66fb2cd2f8330172503988c0f02c3821d58bba0c26480029",
  "source": "pragma solidity ^0.4.19;\n\nlibrary EventStoreLib {\n\n    event TransmuteEvent(\n        uint index,\n        address sender,\n        bytes32 key,\n        bytes32 value\n    );\n\n    struct TransmuteEventStruct {\n        uint index;\n        address sender;\n        bytes32 key;  \n        bytes32 value; \n    }\n\n    struct TransmuteStorage {\n        TransmuteEventStruct[] events;\n    }\n\n    function write(\n        TransmuteStorage storage self,\n        bytes32 key,\n        bytes32 value\n    ) public returns (uint) {\n        TransmuteEventStruct memory evt;\n        evt.index = self.events.length;\n        evt.sender = msg.sender;\n        evt.key = key;\n        evt.value = value;\n        emit TransmuteEvent(evt.index, evt.sender, evt.key, evt.value);\n        self.events.push(evt);\n        return evt.index;\n    }\n\n    function read(TransmuteStorage storage self, uint index) public constant\n    returns (uint, address, bytes32, bytes32 ) {\n        TransmuteEventStruct memory evt = self.events[index];\n        return (\n            evt.index,\n            evt.sender,\n            evt.key,\n            evt.value\n        );\n    }   \n}\n",
  "sourcePath": "transmute-framework/contracts/EventStoreLib.sol",
  "compiler": {
    "name": "solc",
    "version": "0.4.24+commit.e67f0147.Emscripten.clang"
  },
  "schemaVersion": "2.0.0",
  "updatedAt": "2018-06-22T21:28:17.628Z"
}